{
  "contractName": "Oracle",
  "abi": [
    {
      "anonymous": false,
      "inputs": [
        {
          "indexed": false,
          "name": "id",
          "type": "uint256"
        },
        {
          "indexed": false,
          "name": "urlToQuery",
          "type": "string"
        },
        {
          "indexed": false,
          "name": "attributeToFetch",
          "type": "string"
        }
      ],
      "name": "NewRequest",
      "type": "event",
      "signature": "0x0312239616abfb14f7ffa065155abb0ca047274d86c965890db4c8a48b8ce4b6"
    },
    {
      "anonymous": false,
      "inputs": [
        {
          "indexed": false,
          "name": "id",
          "type": "uint256"
        },
        {
          "indexed": false,
          "name": "urlToQuery",
          "type": "string"
        },
        {
          "indexed": false,
          "name": "attributeToFetch",
          "type": "string"
        },
        {
          "indexed": false,
          "name": "agreedValue",
          "type": "string"
        }
      ],
      "name": "UpdatedRequest",
      "type": "event",
      "signature": "0x51f1e1f00d186e79f8ea7c82be079fcdd49fe881904a9cdc1903345eb69d3831"
    },
    {
      "constant": false,
      "inputs": [
        {
          "name": "urlToQuery",
          "type": "string"
        },
        {
          "name": "attributeToFetch",
          "type": "string"
        }
      ],
      "name": "createRequest",
      "outputs": [],
      "payable": false,
      "stateMutability": "nonpayable",
      "type": "function",
      "signature": "0xdf89f819"
    },
    {
      "constant": false,
      "inputs": [
        {
          "name": "_id",
          "type": "uint256"
        },
        {
          "name": "_valueRetrieved",
          "type": "string"
        }
      ],
      "name": "updateRequest",
      "outputs": [],
      "payable": false,
      "stateMutability": "nonpayable",
      "type": "function",
      "signature": "0xcfb0ac99"
    }
  ],
  "bytecode": "0x60806040526000600155600360025534801561001a57600080fd5b50610bfe8061002a6000396000f3fe60806040526004361061004c576000357c0100000000000000000000000000000000000000000000000000000000900463ffffffff168063cfb0ac9914610051578063df89f81914610123575b600080fd5b34801561005d57600080fd5b506101216004803603604081101561007457600080fd5b81019080803590602001909291908035906020019064010000000081111561009b57600080fd5b8201836020820111156100ad57600080fd5b803590602001918460018302840111640100000000831117156100cf57600080fd5b91908080601f016020809104026020016040519081016040528093929190818152602001838380828437600081840152601f19601f820116905080830192505050505050509192919290505050610282565b005b34801561012f57600080fd5b506102806004803603604081101561014657600080fd5b810190808035906020019064010000000081111561016357600080fd5b82018360208201111561017557600080fd5b8035906020019184600183028401116401000000008311171561019757600080fd5b91908080601f016020809104026020016040519081016040528093929190818152602001838380828437600081840152601f19601f820116905080830192505050505050509192919290803590602001906401000000008111156101fa57600080fd5b82018360208201111561020c57600080fd5b8035906020019184600183028401116401000000008311171561022e57600080fd5b91908080601f016020809104026020016040519081016040528093929190818152602001838380828437600081840152601f19601f8201169050808301925050505050505091929192905050506106c0565b005b6000808381548110151561029257fe5b9060005260206000209060070201905060018160060160003373ffffffffffffffffffffffffffffffffffffffff1673ffffffffffffffffffffffffffffffffffffffff1681526020019081526020016000205414156106bb5760028160060160003373ffffffffffffffffffffffffffffffffffffffff1673ffffffffffffffffffffffffffffffffffffffff16815260200190815260200160002081905550600080905060008090505b8015156103b357600083600501600084815260200190815260200160002080546001816001161561010002031660029004905014156103a657600190508383600501600084815260200190815260200160002090805190602001906103a4929190610aad565b505b818060010192505061033e565b600080905060008090505b84600101548110156106b65760608560050160008381526020019081526020016000208054600181600116156101000203166002900480601f0160208091040260200160405190810160405280929190818152602001828054600181600116156101000203166002900480156104755780601f1061044a57610100808354040283529160200191610475565b820191906000526020600020905b81548152906001019060200180831161045857829003601f168201915b5050505050905060608790508080519060200120828051906020012014156106a7578380600101945050600254841015156106a657878760040190805190602001906104c2929190610aad565b507f51f1e1f00d186e79f8ea7c82be079fcdd49fe881904a9cdc1903345eb69d3831876000015488600201896003018a6004016040518085815260200180602001806020018060200184810384528781815460018160011615610100020316600290048152602001915080546001816001161561010002031660029004801561058c5780601f106105615761010080835404028352916020019161058c565b820191906000526020600020905b81548152906001019060200180831161056f57829003601f168201915b505084810383528681815460018160011615610100020316600290048152602001915080546001816001161561010002031660029004801561060f5780601f106105e45761010080835404028352916020019161060f565b820191906000526020600020905b8154815290600101906020018083116105f257829003601f168201915b50508481038252858181546001816001161561010002031660029004815260200191508054600181600116156101000203166002900480156106925780601f1061066757610100808354040283529160200191610692565b820191906000526020600020905b81548152906001019060200180831161067557829003601f168201915b505097505050505050505060405180910390a15b5b505080806001019150506103be565b505050505b505050565b60008060a06040519081016040528060015481526020016005815260200185815260200184815260200160206040519081016040528060008152508152509080600181540180825580915050906001820390600052602060002090600702016000909192909190915060008201518160000155602082015181600101556040820151816002019080519060200190610759929190610b2d565b506060820151816003019080519060200190610776929190610b2d565b506080820151816004019080519060200190610793929190610b2d565b5050509050600080600183038154811015156107ab57fe5b906000526020600020906007020190506001816006016000736c2339b46f41a06f09ca0051ddad54d1e582ba7773ffffffffffffffffffffffffffffffffffffffff1673ffffffffffffffffffffffffffffffffffffffff16815260200190815260200160002081905550600181600601600073b5346cf224c02186606e5f89eacc21ec2539807773ffffffffffffffffffffffffffffffffffffffff1673ffffffffffffffffffffffffffffffffffffffff16815260200190815260200160002081905550600181600601600073a2997f1ca363d11a0a35bb1ac0ff7849bc13e91473ffffffffffffffffffffffffffffffffffffffff1673ffffffffffffffffffffffffffffffffffffffff16815260200190815260200160002081905550600181600601600073986897d902bec58beb4d2d6f19085cef31288a1973ffffffffffffffffffffffffffffffffffffffff1673ffffffffffffffffffffffffffffffffffffffff168152602001908152602001600020819055506001816006016000732fe77cab57f96244086bd8f6feed1bdf950c6d3e73ffffffffffffffffffffffffffffffffffffffff1673ffffffffffffffffffffffffffffffffffffffff168152602001908152602001600020819055507f0312239616abfb14f7ffa065155abb0ca047274d86c965890db4c8a48b8ce4b66001548585604051808481526020018060200180602001838103835285818151815260200191508051906020019080838360005b838110156109f25780820151818401526020810190506109d7565b50505050905090810190601f168015610a1f5780820380516001836020036101000a031916815260200191505b50838103825284818151815260200191508051906020019080838360005b83811015610a58578082015181840152602081019050610a3d565b50505050905090810190601f168015610a855780820380516001836020036101000a031916815260200191505b509550505050505060405180910390a160016000815480929190600101919050555050505050565b828054600181600116156101000203166002900490600052602060002090601f016020900481019282601f10610aee57805160ff1916838001178555610b1c565b82800160010185558215610b1c579182015b82811115610b1b578251825591602001919060010190610b00565b5b509050610b299190610bad565b5090565b828054600181600116156101000203166002900490600052602060002090601f016020900481019282601f10610b6e57805160ff1916838001178555610b9c565b82800160010185558215610b9c579182015b82811115610b9b578251825591602001919060010190610b80565b5b509050610ba99190610bad565b5090565b610bcf91905b80821115610bcb576000816000905550600101610bb3565b5090565b9056fea165627a7a72305820e9e270f7127ac374b7fa351eddd469f4332a943c363efc6af25c50d1528049c10029",
  "source": "pragma solidity >=0.4.21 <0.6.0;\n\ncontract Oracle {\n  Request[] requests;\n  uint currentId = 0; //increasing request id\n  uint minQuorum = 3; //minimum number of responses to receive before declaring final result\n\n  // defines a general api request\n  struct Request {\n    uint id;                            //request id\n    uint oracleCount;                    //hardcoded oracle count\n    string urlToQuery;                  //API url\n    string attributeToFetch;            //json attribute (key) to retrieve in the response\n    string agreedValue;                 //value from key\n    mapping(uint => string) anwers;     //answers provided by the oracles\n    mapping(address => uint) quorum;    //oracles which will query the answer\n  }\n\n  event NewRequest (\n    uint id,\n    string urlToQuery,\n    string attributeToFetch\n  );\n\n  event UpdatedRequest (\n    uint id,\n    string urlToQuery,\n    string attributeToFetch,\n    string agreedValue\n  );\n\n  function createRequest (\n    string memory urlToQuery,\n    string memory attributeToFetch\n  )\n  public\n  {\n    // Hardcothroughded oracle count\n    uint lenght = requests.push(Request(currentId, 5, urlToQuery, attributeToFetch, \"\"));\n    Request storage r = requests[lenght-1];\n\n    // Hardcoded oracles address\n    r.quorum[address(0x6c2339b46F41a06f09CA0051ddAD54D1e582bA77)] = 1;\n    r.quorum[address(0xb5346CF224c02186606e5f89EACC21eC25398077)] = 1;\n    r.quorum[address(0xa2997F1CA363D11a0a35bB1Ac0Ff7849bc13e914)] = 1;\n    r.quorum[address(0x986897d902bEC58BEB4D2d6F19085ceF31288A19)] = 1;\n    r.quorum[address(0x2fE77cAB57f96244086BD8F6feEd1bdf950C6D3e)] = 1;\n\n    // launch an event to be detected by oracle outside of blockchain\n    emit NewRequest (\n      currentId,\n      urlToQuery,\n      attributeToFetch\n    );\n\n    currentId++;\n  }\n\n  function updateRequest (\n    uint _id,\n    string memory _valueRetrieved\n  ) public {\n\n    Request storage currRequest = requests[_id];\n\n    if(currRequest.quorum[address(msg.sender)] == 1){\n\n      // meaning this address has voted already\n      currRequest.quorum[msg.sender] = 2;\n\n      uint tmpI = 0;\n      bool found = false;\n      while(!found) {\n        //find first empty slot\n        if(bytes(currRequest.anwers[tmpI]).length == 0){\n          found = true;\n          currRequest.anwers[tmpI] = _valueRetrieved;\n        }\n        tmpI++;\n      }\n\n      uint currentQuorum = 0;\n\n      for(uint i = 0; i < currRequest.oracleCount; i++){\n        bytes memory a = bytes(currRequest.anwers[i]);\n        bytes memory b = bytes(_valueRetrieved);\n\n        if(keccak256(a) == keccak256(b)){\n          currentQuorum++;\n          if(currentQuorum >= minQuorum){\n            currRequest.agreedValue = _valueRetrieved;\n            emit UpdatedRequest (\n              currRequest.id,\n              currRequest.urlToQuery,\n              currRequest.attributeToFetch,\n              currRequest.agreedValue\n            );\n          }\n        }\n      }\n    }\n  }\n}\n",
  "sourcePath": "/tmp/Monografia/eth-oracle/oracle-sc/contracts/Oracle.sol",
  "compiler": {
    "name": "solc",
    "version": "0.5.0+commit.1d4f565a.Emscripten.clang"
  },
  "schemaVersion": "3.0.8",
  "updatedAt": "2019-05-21T15:17:28.478Z",
  "devdoc": {
    "methods": {}
  },
  "userdoc": {
    "methods": {}
  }
}